{
  "contractName": "TimeCapsule",
  "abi": [
    {
      "anonymous": false,
      "inputs": [
        {
          "indexed": true,
          "internalType": "address",
          "name": "user",
          "type": "address"
        },
        {
          "indexed": false,
          "internalType": "uint256",
          "name": "index",
          "type": "uint256"
        },
        {
          "indexed": false,
          "internalType": "string",
          "name": "message",
          "type": "string"
        },
        {
          "indexed": false,
          "internalType": "uint256",
          "name": "unlockTime",
          "type": "uint256"
        }
      ],
      "name": "CapsuleCreated",
      "type": "event"
    },
    {
      "anonymous": false,
      "inputs": [
        {
          "indexed": true,
          "internalType": "address",
          "name": "user",
          "type": "address"
        },
        {
          "indexed": false,
          "internalType": "uint256",
          "name": "index",
          "type": "uint256"
        }
      ],
      "name": "CapsuleUnlocked",
      "type": "event"
    },
    {
      "inputs": [
        {
          "internalType": "string",
          "name": "_message",
          "type": "string"
        },
        {
          "internalType": "uint256",
          "name": "_unlockTime",
          "type": "uint256"
        }
      ],
      "name": "createCapsule",
      "outputs": [],
      "stateMutability": "nonpayable",
      "type": "function"
    },
    {
      "inputs": [
        {
          "internalType": "uint256",
          "name": "_index",
          "type": "uint256"
        }
      ],
      "name": "unlockCapsule",
      "outputs": [],
      "stateMutability": "nonpayable",
      "type": "function"
    },
    {
      "inputs": [
        {
          "internalType": "uint256",
          "name": "_index",
          "type": "uint256"
        }
      ],
      "name": "getCapsule",
      "outputs": [
        {
          "internalType": "string",
          "name": "",
          "type": "string"
        },
        {
          "internalType": "uint256",
          "name": "",
          "type": "uint256"
        },
        {
          "internalType": "bool",
          "name": "",
          "type": "bool"
        }
      ],
      "stateMutability": "view",
      "type": "function",
      "constant": true
    },
    {
      "inputs": [],
      "name": "getCapsules",
      "outputs": [
        {
          "components": [
            {
              "internalType": "string",
              "name": "message",
              "type": "string"
            },
            {
              "internalType": "uint256",
              "name": "unlockTime",
              "type": "uint256"
            },
            {
              "internalType": "bool",
              "name": "isUnlocked",
              "type": "bool"
            }
          ],
          "internalType": "struct TimeCapsule.Capsule[]",
          "name": "",
          "type": "tuple[]"
        }
      ],
      "stateMutability": "view",
      "type": "function",
      "constant": true
    }
  ],
  "bytecode": "0x608060405234801561000f575f80fd5b5061117e8061001d5f395ff3fe608060405234801561000f575f80fd5b506004361061004a575f3560e01c80632178c0a21461004e5780633aac38581461006a578063bfac14511461009c578063d5e0d88e146100ba575b5f80fd5b610068600480360381019061006391906107a9565b6100d6565b005b610084600480360381019061007f91906107a9565b6102ba565b60405161009393929190610887565b60405180910390f35b6100a4610476565b6040516100b19190610a31565b60405180910390f35b6100d460048036038101906100cf9190610b7d565b6105bf565b005b5f803373ffffffffffffffffffffffffffffffffffffffff1673ffffffffffffffffffffffffffffffffffffffff1681526020019081526020015f20805490508110610157576040517f08c379a000000000000000000000000000000000000000000000000000000000815260040161014e90610c21565b60405180910390fd5b5f805f3373ffffffffffffffffffffffffffffffffffffffff1673ffffffffffffffffffffffffffffffffffffffff1681526020019081526020015f2082815481106101a6576101a5610c3f565b5b905f5260205f2090600302019050806002015f9054906101000a900460ff1615610205576040517f08c379a00000000000000000000000000000000000000000000000000000000081526004016101fc90610cb6565b60405180910390fd5b806001015442101561024c576040517f08c379a000000000000000000000000000000000000000000000000000000000815260040161024390610d1e565b60405180910390fd5b6001816002015f6101000a81548160ff0219169083151502179055503373ffffffffffffffffffffffffffffffffffffffff167f1eef9913bcbf9ca33844966f8e25fe99646ec46ed4c7e21f3080cd8312784360836040516102ae9190610d3c565b60405180910390a25050565b60605f805f803373ffffffffffffffffffffffffffffffffffffffff1673ffffffffffffffffffffffffffffffffffffffff1681526020019081526020015f2080549050841061033f576040517f08c379a000000000000000000000000000000000000000000000000000000000815260040161033690610c21565b60405180910390fd5b5f805f3373ffffffffffffffffffffffffffffffffffffffff1673ffffffffffffffffffffffffffffffffffffffff1681526020019081526020015f20858154811061038e5761038d610c3f565b5b905f5260205f2090600302016040518060600160405290815f820180546103b490610d82565b80601f01602080910402602001604051908101604052809291908181526020018280546103e090610d82565b801561042b5780601f106104025761010080835404028352916020019161042b565b820191905f5260205f20905b81548152906001019060200180831161040e57829003601f168201915b5050505050815260200160018201548152602001600282015f9054906101000a900460ff1615151515815250509050805f015181602001518260400151935093509350509193909250565b60605f803373ffffffffffffffffffffffffffffffffffffffff1673ffffffffffffffffffffffffffffffffffffffff1681526020019081526020015f20805480602002602001604051908101604052809291908181526020015f905b828210156105b6578382905f5260205f2090600302016040518060600160405290815f8201805461050390610d82565b80601f016020809104026020016040519081016040528092919081815260200182805461052f90610d82565b801561057a5780601f106105515761010080835404028352916020019161057a565b820191905f5260205f20905b81548152906001019060200180831161055d57829003601f168201915b5050505050815260200160018201548152602001600282015f9054906101000a900460ff161515151581525050815260200190600101906104d3565b50505050905090565b428111610601576040517f08c379a00000000000000000000000000000000000000000000000000000000081526004016105f890610e22565b60405180910390fd5b5f60405180606001604052808481526020018381526020015f151581525090505f803373ffffffffffffffffffffffffffffffffffffffff1673ffffffffffffffffffffffffffffffffffffffff1681526020019081526020015f2081908060018154018082558091505060019003905f5260205f2090600302015f909190919091505f820151815f0190816106979190610fdd565b50602082015181600101556040820151816002015f6101000a81548160ff02191690831515021790555050503373ffffffffffffffffffffffffffffffffffffffff167ffd41d29bdf4a956f24f66650a6aba4615905a79d3e8a27a4381253060533900860015f803373ffffffffffffffffffffffffffffffffffffffff1673ffffffffffffffffffffffffffffffffffffffff1681526020019081526020015f208054905061074791906110d9565b85856040516107589392919061110c565b60405180910390a2505050565b5f604051905090565b5f80fd5b5f80fd5b5f819050919050565b61078881610776565b8114610792575f80fd5b50565b5f813590506107a38161077f565b92915050565b5f602082840312156107be576107bd61076e565b5b5f6107cb84828501610795565b91505092915050565b5f81519050919050565b5f82825260208201905092915050565b5f5b8381101561080b5780820151818401526020810190506107f0565b5f8484015250505050565b5f601f19601f8301169050919050565b5f610830826107d4565b61083a81856107de565b935061084a8185602086016107ee565b61085381610816565b840191505092915050565b61086781610776565b82525050565b5f8115159050919050565b6108818161086d565b82525050565b5f6060820190508181035f83015261089f8186610826565b90506108ae602083018561085e565b6108bb6040830184610878565b949350505050565b5f81519050919050565b5f82825260208201905092915050565b5f819050602082019050919050565b5f82825260208201905092915050565b5f610906826107d4565b61091081856108ec565b93506109208185602086016107ee565b61092981610816565b840191505092915050565b61093d81610776565b82525050565b61094c8161086d565b82525050565b5f606083015f8301518482035f86015261096c82826108fc565b91505060208301516109816020860182610934565b5060408301516109946040860182610943565b508091505092915050565b5f6109aa8383610952565b905092915050565b5f602082019050919050565b5f6109c8826108c3565b6109d281856108cd565b9350836020820285016109e4856108dd565b805f5b85811015610a1f5784840389528151610a00858261099f565b9450610a0b836109b2565b925060208a019950506001810190506109e7565b50829750879550505050505092915050565b5f6020820190508181035f830152610a4981846109be565b905092915050565b5f80fd5b5f80fd5b7f4e487b71000000000000000000000000000000000000000000000000000000005f52604160045260245ffd5b610a8f82610816565b810181811067ffffffffffffffff82111715610aae57610aad610a59565b5b80604052505050565b5f610ac0610765565b9050610acc8282610a86565b919050565b5f67ffffffffffffffff821115610aeb57610aea610a59565b5b610af482610816565b9050602081019050919050565b828183375f83830152505050565b5f610b21610b1c84610ad1565b610ab7565b905082815260208101848484011115610b3d57610b3c610a55565b5b610b48848285610b01565b509392505050565b5f82601f830112610b6457610b63610a51565b5b8135610b74848260208601610b0f565b91505092915050565b5f8060408385031215610b9357610b9261076e565b5b5f83013567ffffffffffffffff811115610bb057610baf610772565b5b610bbc85828601610b50565b9250506020610bcd85828601610795565b9150509250929050565b7f496e76616c69642063617073756c6520696e64657800000000000000000000005f82015250565b5f610c0b6015836107de565b9150610c1682610bd7565b602082019050919050565b5f6020820190508181035f830152610c3881610bff565b9050919050565b7f4e487b71000000000000000000000000000000000000000000000000000000005f52603260045260245ffd5b7f43617073756c6520697320616c726561647920756e6c6f636b656400000000005f82015250565b5f610ca0601b836107de565b9150610cab82610c6c565b602082019050919050565b5f6020820190508181035f830152610ccd81610c94565b9050919050565b7f43617073756c65206973207374696c6c206c6f636b65640000000000000000005f82015250565b5f610d086017836107de565b9150610d1382610cd4565b602082019050919050565b5f6020820190508181035f830152610d3581610cfc565b9050919050565b5f602082019050610d4f5f83018461085e565b92915050565b7f4e487b71000000000000000000000000000000000000000000000000000000005f52602260045260245ffd5b5f6002820490506001821680610d9957607f821691505b602082108103610dac57610dab610d55565b5b50919050565b7f556e6c6f636b2074696d65206d75737420626520696e207468652066757475725f8201527f6500000000000000000000000000000000000000000000000000000000000000602082015250565b5f610e0c6021836107de565b9150610e1782610db2565b604082019050919050565b5f6020820190508181035f830152610e3981610e00565b9050919050565b5f819050815f5260205f209050919050565b5f6020601f8301049050919050565b5f82821b905092915050565b5f60088302610e9c7fffffffffffffffffffffffffffffffffffffffffffffffffffffffffffffffff82610e61565b610ea68683610e61565b95508019841693508086168417925050509392505050565b5f819050919050565b5f610ee1610edc610ed784610776565b610ebe565b610776565b9050919050565b5f819050919050565b610efa83610ec7565b610f0e610f0682610ee8565b848454610e6d565b825550505050565b5f90565b610f22610f16565b610f2d818484610ef1565b505050565b5b81811015610f5057610f455f82610f1a565b600181019050610f33565b5050565b601f821115610f9557610f6681610e40565b610f6f84610e52565b81016020851015610f7e578190505b610f92610f8a85610e52565b830182610f32565b50505b505050565b5f82821c905092915050565b5f610fb55f1984600802610f9a565b1980831691505092915050565b5f610fcd8383610fa6565b9150826002028217905092915050565b610fe6826107d4565b67ffffffffffffffff811115610fff57610ffe610a59565b5b6110098254610d82565b611014828285610f54565b5f60209050601f831160018114611045575f8415611033578287015190505b61103d8582610fc2565b8655506110a4565b601f19841661105386610e40565b5f5b8281101561107a57848901518255600182019150602085019450602081019050611055565b868310156110975784890151611093601f891682610fa6565b8355505b6001600288020188555050505b505050505050565b7f4e487b71000000000000000000000000000000000000000000000000000000005f52601160045260245ffd5b5f6110e382610776565b91506110ee83610776565b9250828203905081811115611106576111056110ac565b5b92915050565b5f60608201905061111f5f83018661085e565b81810360208301526111318185610826565b9050611140604083018461085e565b94935050505056fea2646970667358221220e688f41e9df0ea781a99d9fd7cffa86a30a65bdb656f889f0d47677b85e0102764736f6c63430008150033",
  "immutableReferences": {},
  "source": "// SPDX-License-Identifier: MIT\npragma solidity ^0.8.0;\n\ncontract TimeCapsule {\n    struct Capsule {\n        string message;\n        uint256 unlockTime;\n        bool isUnlocked;\n    }\n\n    mapping(address => Capsule[]) private capsules;\n\n    // Event for capsule creation\n    event CapsuleCreated(address indexed user, uint256 index, string message, uint256 unlockTime);\n\n    // Event for capsule unlocking\n    event CapsuleUnlocked(address indexed user, uint256 index);\n\n    // Create a new time capsule\n    function createCapsule(string memory _message, uint256 _unlockTime) public {\n        require(_unlockTime > block.timestamp, \"Unlock time must be in the future\");\n        \n        Capsule memory newCapsule = Capsule({\n            message: _message,\n            unlockTime: _unlockTime,\n            isUnlocked: false\n        });\n\n        capsules[msg.sender].push(newCapsule);\n        emit CapsuleCreated(msg.sender, capsules[msg.sender].length - 1, _message, _unlockTime);\n    }\n\n    // Unlock a time capsule\n    function unlockCapsule(uint256 _index) public {\n        require(_index < capsules[msg.sender].length, \"Invalid capsule index\");\n        Capsule storage capsule = capsules[msg.sender][_index];\n        require(!capsule.isUnlocked, \"Capsule is already unlocked\");\n        require(block.timestamp >= capsule.unlockTime, \"Capsule is still locked\");\n\n        capsule.isUnlocked = true;\n        emit CapsuleUnlocked(msg.sender, _index);\n    }\n\n    // Retrieve capsule data\n    function getCapsule(uint256 _index) public view returns (string memory, uint256, bool) {\n        require(_index < capsules[msg.sender].length, \"Invalid capsule index\");\n        Capsule memory capsule = capsules[msg.sender][_index];\n        return (capsule.message, capsule.unlockTime, capsule.isUnlocked);\n    }\n\n    // Retrieve all capsules for a user\n    function getCapsules() public view returns (Capsule[] memory) {\n        return capsules[msg.sender];\n    }\n}\n",
  "sourcePath": "/home/meo/projects/TimeCapsulesProject/contracts/TimeCapsule.sol",
  "compiler": {
    "name": "solc",
    "version": "0.8.21+commit.d9974bed.Emscripten.clang"
  },
  "schemaVersion": "3.4.16",
  "updatedAt": "2023-12-30T07:03:25.376Z",
  "networkType": "ethereum",
  "devdoc": {
    "kind": "dev",
    "methods": {},
    "version": 1
  },
  "userdoc": {
    "kind": "user",
    "methods": {},
    "version": 1
  }
}