{
  "contractName": "ArbitrumTimeCapsule",
  "abi": [
    {
      "anonymous": false,
      "inputs": [
        {
          "indexed": true,
          "internalType": "bytes32",
          "name": "capsuleId",
          "type": "bytes32"
        },
        {
          "indexed": false,
          "internalType": "uint256",
          "name": "amount",
          "type": "uint256"
        },
        {
          "indexed": false,
          "internalType": "address",
          "name": "recipient",
          "type": "address"
        }
      ],
      "name": "CapsuleUnlocked",
      "type": "event"
    },
    {
      "inputs": [
        {
          "internalType": "bytes32",
          "name": "",
          "type": "bytes32"
        }
      ],
      "name": "capsules",
      "outputs": [
        {
          "internalType": "uint256",
          "name": "amount",
          "type": "uint256"
        },
        {
          "internalType": "uint256",
          "name": "unlockTime",
          "type": "uint256"
        },
        {
          "internalType": "bool",
          "name": "isUnlocked",
          "type": "bool"
        }
      ],
      "stateMutability": "view",
      "type": "function"
    },
    {
      "stateMutability": "payable",
      "type": "receive"
    },
    {
      "inputs": [
        {
          "internalType": "bytes32",
          "name": "capsuleId",
          "type": "bytes32"
        },
        {
          "internalType": "uint256",
          "name": "amount",
          "type": "uint256"
        },
        {
          "internalType": "uint256",
          "name": "unlockTime",
          "type": "uint256"
        },
        {
          "internalType": "address",
          "name": "recipient",
          "type": "address"
        }
      ],
      "name": "unlockCapsule",
      "outputs": [],
      "stateMutability": "nonpayable",
      "type": "function"
    }
  ],
  "bytecode": "0x608060405234801561000f575f80fd5b506105548061001d5f395ff3fe60806040526004361061002c575f3560e01c80633b5ef81b146100375780636e57a78f1461005f57610033565b3661003357005b5f80fd5b348015610042575f80fd5b5061005d6004803603810190610058919061031b565b61009d565b005b34801561006a575f80fd5b506100856004803603810190610080919061037f565b610226565b604051610094939291906103d3565b60405180910390f35b5f808581526020019081526020015f206002015f9054906101000a900460ff16156100fd576040517f08c379a00000000000000000000000000000000000000000000000000000000081526004016100f490610462565b60405180910390fd5b81421015610140576040517f08c379a0000000000000000000000000000000000000000000000000000000008152600401610137906104ca565b60405180910390fd5b6040518060600160405280848152602001838152602001600115158152505f808681526020019081526020015f205f820151815f0155602082015181600101556040820151816002015f6101000a81548160ff0219169083151502179055509050508073ffffffffffffffffffffffffffffffffffffffff166108fc8490811502906040515f60405180830381858888f193505050501580156101e5573d5f803e3d5ffd5b50837f10a2d104d2c875a64a6f4b18372a51341547d7acbba36a07922dc7f792fb5d4484836040516102189291906104f7565b60405180910390a250505050565b5f602052805f5260405f205f91509050805f015490806001015490806002015f9054906101000a900460ff16905083565b5f80fd5b5f819050919050565b61026d8161025b565b8114610277575f80fd5b50565b5f8135905061028881610264565b92915050565b5f819050919050565b6102a08161028e565b81146102aa575f80fd5b50565b5f813590506102bb81610297565b92915050565b5f73ffffffffffffffffffffffffffffffffffffffff82169050919050565b5f6102ea826102c1565b9050919050565b6102fa816102e0565b8114610304575f80fd5b50565b5f81359050610315816102f1565b92915050565b5f805f806080858703121561033357610332610257565b5b5f6103408782880161027a565b9450506020610351878288016102ad565b9350506040610362878288016102ad565b925050606061037387828801610307565b91505092959194509250565b5f6020828403121561039457610393610257565b5b5f6103a18482850161027a565b91505092915050565b6103b38161028e565b82525050565b5f8115159050919050565b6103cd816103b9565b82525050565b5f6060820190506103e65f8301866103aa565b6103f360208301856103aa565b61040060408301846103c4565b949350505050565b5f82825260208201905092915050565b7f43617073756c6520616c726561647920756e6c6f636b656400000000000000005f82015250565b5f61044c601883610408565b915061045782610418565b602082019050919050565b5f6020820190508181035f83015261047981610440565b9050919050565b7f43617073756c65206973207374696c6c206c6f636b65640000000000000000005f82015250565b5f6104b4601783610408565b91506104bf82610480565b602082019050919050565b5f6020820190508181035f8301526104e1816104a8565b9050919050565b6104f1816102e0565b82525050565b5f60408201905061050a5f8301856103aa565b61051760208301846104e8565b939250505056fea2646970667358221220091c5ba1b758632ba6611e54d7f36f0e6667cb99c99563278e79663d24c5e17d64736f6c63430008150033",
  "immutableReferences": {},
  "source": "// SPDX-License-Identifier: MIT\npragma solidity ^0.8.0;\n\ncontract ArbitrumTimeCapsule {\n    struct Capsule {\n        uint256 amount;\n        uint256 unlockTime;\n        bool isUnlocked;\n    }\n\n    mapping(bytes32 => Capsule) public capsules;\n\n    event CapsuleUnlocked(bytes32 indexed capsuleId, uint256 amount, address recipient);\n\n    // Unlock the time capsule\n    function unlockCapsule(bytes32 capsuleId, uint256 amount, uint256 unlockTime, address recipient) public {\n        // Check if the capsule is already unlocked\n        require(!capsules[capsuleId].isUnlocked, \"Capsule already unlocked\");\n\n        // Verify unlock conditions\n        require(block.timestamp >= unlockTime, \"Capsule is still locked\");\n\n        // Add the capsule details to the mapping\n        capsules[capsuleId] = Capsule({\n            amount: amount,\n            unlockTime: unlockTime,\n            isUnlocked: true\n        });\n\n        // Transfer the amount to the recipient\n        payable(recipient).transfer(amount);\n\n        // Emit an event\n        emit CapsuleUnlocked(capsuleId, amount, recipient);\n    }\n\n    // Fallback function to receive ETH\n    receive() external payable {}\n}\n",
  "sourcePath": "/home/meo/projects/TimeCapsulesProject/contracts/ArbitrumTimeCapsule.sol",
  "compiler": {
    "name": "solc",
    "version": "0.8.21+commit.d9974bed.Emscripten.clang"
  },
  "schemaVersion": "3.4.16",
  "updatedAt": "2023-12-30T14:08:25.671Z",
  "devdoc": {
    "kind": "dev",
    "methods": {},
    "version": 1
  },
  "userdoc": {
    "kind": "user",
    "methods": {},
    "version": 1
  }
}