{
  "contractName": "ArbitrumTimeCapsule",
  "abi": [
    {
      "constant": true,
      "inputs": [
        {
          "name": "",
          "type": "bytes32"
        }
      ],
      "name": "capsules",
      "outputs": [
        {
          "name": "amount",
          "type": "uint256"
        },
        {
          "name": "unlockTime",
          "type": "uint256"
        },
        {
          "name": "isUnlocked",
          "type": "bool"
        }
      ],
      "payable": false,
      "stateMutability": "view",
      "type": "function"
    },
    {
      "constant": true,
      "inputs": [],
      "name": "trustedSource",
      "outputs": [
        {
          "name": "",
          "type": "address"
        }
      ],
      "payable": false,
      "stateMutability": "view",
      "type": "function"
    },
    {
      "inputs": [
        {
          "name": "_trustedSource",
          "type": "address"
        }
      ],
      "payable": false,
      "stateMutability": "nonpayable",
      "type": "constructor"
    },
    {
      "anonymous": false,
      "inputs": [
        {
          "indexed": true,
          "name": "capsuleId",
          "type": "bytes32"
        },
        {
          "indexed": false,
          "name": "amount",
          "type": "uint256"
        },
        {
          "indexed": false,
          "name": "recipient",
          "type": "address"
        }
      ],
      "name": "CapsuleUnlocked",
      "type": "event"
    },
    {
      "constant": false,
      "inputs": [
        {
          "name": "capsuleId",
          "type": "bytes32"
        },
        {
          "name": "amount",
          "type": "uint256"
        },
        {
          "name": "unlockTime",
          "type": "uint256"
        },
        {
          "name": "recipient",
          "type": "address"
        }
      ],
      "name": "unlockCapsule",
      "outputs": [],
      "payable": false,
      "stateMutability": "nonpayable",
      "type": "function"
    },
    {
      "constant": false,
      "inputs": [],
      "name": "receive",
      "outputs": [],
      "payable": true,
      "stateMutability": "payable",
      "type": "function"
    }
  ],
  "bytecode": "0x608060405234801561001057600080fd5b506040516020806105728339810180604052602081101561003057600080fd5b810190808051906020019092919050505080600160006101000a81548173ffffffffffffffffffffffffffffffffffffffff021916908373ffffffffffffffffffffffffffffffffffffffff160217905550506104e0806100926000396000f3fe60806040526004361061005c576000357c0100000000000000000000000000000000000000000000000000000000900480633b5ef81b146100615780636e57a78f146100d0578063a3e76c0f14610131578063cb9995231461013b575b600080fd5b34801561006d57600080fd5b506100ce6004803603608081101561008457600080fd5b81019080803590602001909291908035906020019092919080359060200190929190803573ffffffffffffffffffffffffffffffffffffffff169060200190929190505050610192565b005b3480156100dc57600080fd5b50610109600480360360208110156100f357600080fd5b8101908080359060200190929190505050610455565b6040518084815260200183815260200182151515158152602001935050505060405180910390f35b61013961048c565b005b34801561014757600080fd5b5061015061048e565b604051808273ffffffffffffffffffffffffffffffffffffffff1673ffffffffffffffffffffffffffffffffffffffff16815260200191505060405180910390f35b600160009054906101000a900473ffffffffffffffffffffffffffffffffffffffff1673ffffffffffffffffffffffffffffffffffffffff163373ffffffffffffffffffffffffffffffffffffffff16141515610257576040517f08c379a00000000000000000000000000000000000000000000000000000000081526004018080602001828103825260138152602001807f556e617574686f72697a656420736f757263650000000000000000000000000081525060200191505060405180910390fd5b600080600086815260200190815260200160002090508060020160009054906101000a900460ff161515156102f4576040517f08c379a00000000000000000000000000000000000000000000000000000000081526004018080602001828103825260188152602001807f43617073756c6520616c726561647920756e6c6f636b6564000000000000000081525060200191505060405180910390fd5b82421015151561036c576040517f08c379a00000000000000000000000000000000000000000000000000000000081526004018080602001828103825260178152602001807f43617073756c65206973207374696c6c206c6f636b656400000000000000000081525060200191505060405180910390fd5b83816000018190555082816001018190555060018160020160006101000a81548160ff0219169083151502179055508173ffffffffffffffffffffffffffffffffffffffff166108fc859081150290604051600060405180830381858888f193505050501580156103e1573d6000803e3d6000fd5b50847f10a2d104d2c875a64a6f4b18372a51341547d7acbba36a07922dc7f792fb5d448584604051808381526020018273ffffffffffffffffffffffffffffffffffffffff1673ffffffffffffffffffffffffffffffffffffffff1681526020019250505060405180910390a25050505050565b60006020528060005260406000206000915090508060000154908060010154908060020160009054906101000a900460ff16905083565b565b600160009054906101000a900473ffffffffffffffffffffffffffffffffffffffff168156fea165627a7a72305820512f21b85bc95e2a74ffab43046a133771a342b8239199d93128a7d2e072430b0029",
  "source": "// SPDX-License-Identifier: MIT\npragma solidity >=0.4.22 <0.9.0;\n\ncontract ArbitrumTimeCapsule {\n    struct Capsule {\n        uint256 amount;\n        uint256 unlockTime;\n        bool isUnlocked;\n    }\n\n    mapping(bytes32 => Capsule) public capsules;\n    address public trustedSource;\n\n    event CapsuleUnlocked(bytes32 indexed capsuleId, uint256 amount, address recipient);\n\n    constructor(address _trustedSource) public {\n        trustedSource = _trustedSource; // Set trusted source (e.g., a multisig or DAO address)\n    }\n\n    function unlockCapsule(bytes32 capsuleId, uint256 amount, uint256 unlockTime, address payable recipient) public {\n        require(msg.sender == trustedSource, \"Unauthorized source\");\n\n        Capsule storage capsule = capsules[capsuleId];\n        require(!capsule.isUnlocked, \"Capsule already unlocked\");\n        require(block.timestamp >= unlockTime, \"Capsule is still locked\");\n\n        capsule.amount = amount;\n        capsule.unlockTime = unlockTime;\n        capsule.isUnlocked = true;\n\n        recipient.transfer(amount);\n        emit CapsuleUnlocked(capsuleId, amount, recipient);\n    }\n\n    function receive() external payable {}\n}\n",
  "sourcePath": "/home/meo/projects/TimeCapsulesProject/contracts/ArbitrumTimeCapsule.sol",
  "compiler": {
    "name": "solc",
    "version": "0.5.1+commit.c8a2cb62.Emscripten.clang"
  },
  "schemaVersion": "3.4.16",
  "updatedAt": "2024-01-06T13:14:42.836Z",
  "networkType": "ethereum",
  "devdoc": {
    "methods": {}
  },
  "userdoc": {
    "methods": {}
  }
}