{
  "contractName": "BasicTest",
  "abi": [
    {
      "inputs": [],
      "stateMutability": "nonpayable",
      "type": "constructor"
    },
    {
      "inputs": [],
      "name": "number",
      "outputs": [
        {
          "internalType": "uint256",
          "name": "",
          "type": "uint256"
        }
      ],
      "stateMutability": "view",
      "type": "function"
    },
    {
      "inputs": [
        {
          "internalType": "uint256",
          "name": "_number",
          "type": "uint256"
        }
      ],
      "name": "setNumber",
      "outputs": [],
      "stateMutability": "nonpayable",
      "type": "function"
    },
    {
      "inputs": [],
      "name": "getNumber",
      "outputs": [
        {
          "internalType": "uint256",
          "name": "",
          "type": "uint256"
        }
      ],
      "stateMutability": "view",
      "type": "function"
    }
  ],
  "bytecode": "0x608060405234801561000f575f80fd5b505f8081905550610171806100235f395ff3fe608060405234801561000f575f80fd5b506004361061003f575f3560e01c80633fb5c1cb146100435780638381f58a1461005f578063f2c9ecd81461007d575b5f80fd5b61005d600480360381019061005891906100e8565b61009b565b005b6100676100a4565b6040516100749190610122565b60405180910390f35b6100856100a9565b6040516100929190610122565b60405180910390f35b805f8190555050565b5f5481565b5f8054905090565b5f80fd5b5f819050919050565b6100c7816100b5565b81146100d1575f80fd5b50565b5f813590506100e2816100be565b92915050565b5f602082840312156100fd576100fc6100b1565b5b5f61010a848285016100d4565b91505092915050565b61011c816100b5565b82525050565b5f6020820190506101355f830184610113565b9291505056fea2646970667358221220b6a1977b3ab0b24a0762a7c8c0c092fc0487b1749da3649a26ad4091638536ff64736f6c63430008150033",
  "immutableReferences": {},
  "source": "// SPDX-License-Identifier: MIT\npragma solidity ^0.8.0;\n\ncontract BasicTest {\n    uint public number;\n\n    constructor() {\n        number = 0;\n    }\n\n    function setNumber(uint _number) public {\n        number = _number;\n    }\n\n    function getNumber() public view returns (uint) {\n        return number;\n    }\n}\n",
  "sourcePath": "/home/meo/projects/TimeCapsulesProject/contracts/BasicTest.sol",
  "compiler": {
    "name": "solc",
    "version": "0.8.21+commit.d9974bed.Emscripten.clang"
  },
  "schemaVersion": "3.4.16",
  "updatedAt": "2024-01-06T03:22:59.840Z",
  "devdoc": {
    "kind": "dev",
    "methods": {},
    "version": 1
  },
  "userdoc": {
    "kind": "user",
    "methods": {},
    "version": 1
  }
}