{
  "contractName": "EthTimeCapsule",
  "abi": [
    {
      "anonymous": false,
      "inputs": [
        {
          "indexed": true,
          "internalType": "address",
          "name": "user",
          "type": "address"
        },
        {
          "indexed": false,
          "internalType": "uint256",
          "name": "amount",
          "type": "uint256"
        },
        {
          "indexed": false,
          "internalType": "uint256",
          "name": "unlockTime",
          "type": "uint256"
        }
      ],
      "name": "CapsuleCreated",
      "type": "event"
    },
    {
      "anonymous": false,
      "inputs": [
        {
          "indexed": true,
          "internalType": "address",
          "name": "user",
          "type": "address"
        },
        {
          "indexed": false,
          "internalType": "uint256",
          "name": "amount",
          "type": "uint256"
        }
      ],
      "name": "CapsuleUnlocked",
      "type": "event"
    },
    {
      "inputs": [
        {
          "internalType": "uint256",
          "name": "_unlockTime",
          "type": "uint256"
        }
      ],
      "name": "createCapsule",
      "outputs": [],
      "stateMutability": "payable",
      "type": "function",
      "payable": true
    },
    {
      "inputs": [
        {
          "internalType": "uint256",
          "name": "_index",
          "type": "uint256"
        }
      ],
      "name": "unlockCapsule",
      "outputs": [],
      "stateMutability": "nonpayable",
      "type": "function"
    },
    {
      "inputs": [
        {
          "internalType": "uint256",
          "name": "_index",
          "type": "uint256"
        }
      ],
      "name": "getCapsule",
      "outputs": [
        {
          "internalType": "uint256",
          "name": "",
          "type": "uint256"
        },
        {
          "internalType": "uint256",
          "name": "",
          "type": "uint256"
        },
        {
          "internalType": "bool",
          "name": "",
          "type": "bool"
        }
      ],
      "stateMutability": "view",
      "type": "function",
      "constant": true
    },
    {
      "inputs": [],
      "name": "getCapsules",
      "outputs": [
        {
          "components": [
            {
              "internalType": "uint256",
              "name": "amount",
              "type": "uint256"
            },
            {
              "internalType": "uint256",
              "name": "unlockTime",
              "type": "uint256"
            },
            {
              "internalType": "bool",
              "name": "isUnlocked",
              "type": "bool"
            }
          ],
          "internalType": "struct EthTimeCapsule.Capsule[]",
          "name": "",
          "type": "tuple[]"
        }
      ],
      "stateMutability": "view",
      "type": "function",
      "constant": true
    }
  ],
  "bytecode": "0x608060405234801561000f575f80fd5b50610b8a8061001d5f395ff3fe60806040526004361061003e575f3560e01c80632178c0a2146100425780633aac38581461006a578063bfac1451146100a8578063fec01afe146100d2575b5f80fd5b34801561004d575f80fd5b50610068600480360381019061006391906106d4565b6100ee565b005b348015610075575f80fd5b50610090600480360381019061008b91906106d4565b61031c565b60405161009f93929190610728565b60405180910390f35b3480156100b3575f80fd5b506100bc610451565b6040516100c99190610863565b60405180910390f35b6100ec60048036038101906100e791906106d4565b610514565b005b5f803373ffffffffffffffffffffffffffffffffffffffff1673ffffffffffffffffffffffffffffffffffffffff1681526020019081526020015f2080549050811061016f576040517f08c379a0000000000000000000000000000000000000000000000000000000008152600401610166906108dd565b60405180910390fd5b5f805f3373ffffffffffffffffffffffffffffffffffffffff1673ffffffffffffffffffffffffffffffffffffffff1681526020019081526020015f2082815481106101be576101bd6108fb565b5b905f5260205f2090600302019050806002015f9054906101000a900460ff161561021d576040517f08c379a000000000000000000000000000000000000000000000000000000000815260040161021490610972565b60405180910390fd5b8060010154421015610264576040517f08c379a000000000000000000000000000000000000000000000000000000000815260040161025b906109da565b60405180910390fd5b6001816002015f6101000a81548160ff0219169083151502179055503373ffffffffffffffffffffffffffffffffffffffff166108fc825f015490811502906040515f60405180830381858888f193505050501580156102c6573d5f803e3d5ffd5b503373ffffffffffffffffffffffffffffffffffffffff167f1eef9913bcbf9ca33844966f8e25fe99646ec46ed4c7e21f3080cd8312784360825f015460405161031091906109f8565b60405180910390a25050565b5f805f805f3373ffffffffffffffffffffffffffffffffffffffff1673ffffffffffffffffffffffffffffffffffffffff1681526020019081526020015f208054905084106103a0576040517f08c379a0000000000000000000000000000000000000000000000000000000008152600401610397906108dd565b60405180910390fd5b5f805f3373ffffffffffffffffffffffffffffffffffffffff1673ffffffffffffffffffffffffffffffffffffffff1681526020019081526020015f2085815481106103ef576103ee6108fb565b5b905f5260205f2090600302016040518060600160405290815f820154815260200160018201548152602001600282015f9054906101000a900460ff1615151515815250509050805f015181602001518260400151935093509350509193909250565b60605f803373ffffffffffffffffffffffffffffffffffffffff1673ffffffffffffffffffffffffffffffffffffffff1681526020019081526020015f20805480602002602001604051908101604052809291908181526020015f905b8282101561050b578382905f5260205f2090600302016040518060600160405290815f820154815260200160018201548152602001600282015f9054906101000a900460ff161515151581525050815260200190600101906104ae565b50505050905090565b5f3411610556576040517f08c379a000000000000000000000000000000000000000000000000000000000815260040161054d90610a81565b60405180910390fd5b428111610598576040517f08c379a000000000000000000000000000000000000000000000000000000000815260040161058f90610b0f565b60405180910390fd5b5f803373ffffffffffffffffffffffffffffffffffffffff1673ffffffffffffffffffffffffffffffffffffffff1681526020019081526020015f2060405180606001604052803481526020018381526020015f1515815250908060018154018082558091505060019003905f5260205f2090600302015f909190919091505f820151815f0155602082015181600101556040820151816002015f6101000a81548160ff02191690831515021790555050503373ffffffffffffffffffffffffffffffffffffffff167fb846a62ee9cf9a1963f973dce4b14d77faf2aec4faeb90f1b3e34f23b2fa18273483604051610692929190610b2d565b60405180910390a250565b5f80fd5b5f819050919050565b6106b3816106a1565b81146106bd575f80fd5b50565b5f813590506106ce816106aa565b92915050565b5f602082840312156106e9576106e861069d565b5b5f6106f6848285016106c0565b91505092915050565b610708816106a1565b82525050565b5f8115159050919050565b6107228161070e565b82525050565b5f60608201905061073b5f8301866106ff565b61074860208301856106ff565b6107556040830184610719565b949350505050565b5f81519050919050565b5f82825260208201905092915050565b5f819050602082019050919050565b61078f816106a1565b82525050565b61079e8161070e565b82525050565b606082015f8201516107b85f850182610786565b5060208201516107cb6020850182610786565b5060408201516107de6040850182610795565b50505050565b5f6107ef83836107a4565b60608301905092915050565b5f602082019050919050565b5f6108118261075d565b61081b8185610767565b935061082683610777565b805f5b8381101561085657815161083d88826107e4565b9750610848836107fb565b925050600181019050610829565b5085935050505092915050565b5f6020820190508181035f83015261087b8184610807565b905092915050565b5f82825260208201905092915050565b7f496e76616c69642063617073756c6520696e64657800000000000000000000005f82015250565b5f6108c7601583610883565b91506108d282610893565b602082019050919050565b5f6020820190508181035f8301526108f4816108bb565b9050919050565b7f4e487b71000000000000000000000000000000000000000000000000000000005f52603260045260245ffd5b7f43617073756c6520697320616c726561647920756e6c6f636b656400000000005f82015250565b5f61095c601b83610883565b915061096782610928565b602082019050919050565b5f6020820190508181035f83015261098981610950565b9050919050565b7f43617073756c65206973207374696c6c206c6f636b65640000000000000000005f82015250565b5f6109c4601783610883565b91506109cf82610990565b602082019050919050565b5f6020820190508181035f8301526109f1816109b8565b9050919050565b5f602082019050610a0b5f8301846106ff565b92915050565b7f4d7573742073656e642045544820746f2063726561746520612063617073756c5f8201527f6500000000000000000000000000000000000000000000000000000000000000602082015250565b5f610a6b602183610883565b9150610a7682610a11565b604082019050919050565b5f6020820190508181035f830152610a9881610a5f565b9050919050565b7f556e6c6f636b2074696d65206d75737420626520696e207468652066757475725f8201527f6500000000000000000000000000000000000000000000000000000000000000602082015250565b5f610af9602183610883565b9150610b0482610a9f565b604082019050919050565b5f6020820190508181035f830152610b2681610aed565b9050919050565b5f604082019050610b405f8301856106ff565b610b4d60208301846106ff565b939250505056fea2646970667358221220de46706f5fba1e98d0c523fe7698e712bd908c9dbf8dac4ffaecf575e61d19c764736f6c63430008150033",
  "immutableReferences": {},
  "source": "// SPDX-License-Identifier: MIT\npragma solidity ^0.8.0;\n\ncontract EthTimeCapsule {\n    struct Capsule {\n        uint256 amount;\n        uint256 unlockTime;\n        bool isUnlocked;\n    }\n\n    mapping(address => Capsule[]) private capsules;\n\n    event CapsuleCreated(address indexed user, uint256 amount, uint256 unlockTime);\n    event CapsuleUnlocked(address indexed user, uint256 amount);\n\n    // Function to create an ETH time capsule\n    function createCapsule(uint256 _unlockTime) external payable {\n        require(msg.value > 0, \"Must send ETH to create a capsule\");\n        require(_unlockTime > block.timestamp, \"Unlock time must be in the future\");\n        \n        capsules[msg.sender].push(Capsule({\n            amount: msg.value,\n            unlockTime: _unlockTime,\n            isUnlocked: false\n        }));\n\n        emit CapsuleCreated(msg.sender, msg.value, _unlockTime);\n    }\n\n    // Function to unlock an ETH time capsule\n    function unlockCapsule(uint256 _index) external {\n        require(_index < capsules[msg.sender].length, \"Invalid capsule index\");\n        Capsule storage capsule = capsules[msg.sender][_index];\n        require(!capsule.isUnlocked, \"Capsule is already unlocked\");\n        require(block.timestamp >= capsule.unlockTime, \"Capsule is still locked\");\n\n        capsule.isUnlocked = true;\n        payable(msg.sender).transfer(capsule.amount);\n        emit CapsuleUnlocked(msg.sender, capsule.amount);\n    }\n\n    // Function to retrieve information about a specific capsule\n    function getCapsule(uint256 _index) external view returns (uint256, uint256, bool) {\n        require(_index < capsules[msg.sender].length, \"Invalid capsule index\");\n        Capsule memory capsule = capsules[msg.sender][_index];\n        return (capsule.amount, capsule.unlockTime, capsule.isUnlocked);\n    }\n\n    // Function to retrieve all capsules for a specific user\n    function getCapsules() external view returns (Capsule[] memory) {\n        return capsules[msg.sender];\n    }\n}\n",
  "sourcePath": "/home/meo/projects/TimeCapsulesProject/contracts/EthTimeCapsule.sol",
  "compiler": {
    "name": "solc",
    "version": "0.8.21+commit.d9974bed.Emscripten.clang"
  },
  "schemaVersion": "3.4.16",
  "updatedAt": "2024-01-06T04:12:28.183Z",
  "networkType": "ethereum",
  "devdoc": {
    "kind": "dev",
    "methods": {},
    "version": 1
  },
  "userdoc": {
    "kind": "user",
    "methods": {},
    "version": 1
  }
}