{
  "contractName": "TimeCapsule",
  "abi": [
    {
      "constant": true,
      "inputs": [],
      "name": "trustedSource",
      "outputs": [
        {
          "name": "",
          "type": "address"
        }
      ],
      "payable": false,
      "stateMutability": "view",
      "type": "function"
    },
    {
      "inputs": [
        {
          "name": "_trustedSource",
          "type": "address"
        }
      ],
      "payable": false,
      "stateMutability": "nonpayable",
      "type": "constructor"
    },
    {
      "anonymous": false,
      "inputs": [
        {
          "indexed": true,
          "name": "user",
          "type": "address"
        },
        {
          "indexed": false,
          "name": "index",
          "type": "uint256"
        },
        {
          "indexed": false,
          "name": "message",
          "type": "string"
        },
        {
          "indexed": false,
          "name": "unlockTime",
          "type": "uint256"
        }
      ],
      "name": "CapsuleCreated",
      "type": "event"
    },
    {
      "anonymous": false,
      "inputs": [
        {
          "indexed": true,
          "name": "user",
          "type": "address"
        },
        {
          "indexed": false,
          "name": "index",
          "type": "uint256"
        }
      ],
      "name": "CapsuleUnlocked",
      "type": "event"
    },
    {
      "constant": false,
      "inputs": [
        {
          "name": "_message",
          "type": "string"
        },
        {
          "name": "_unlockTime",
          "type": "uint256"
        }
      ],
      "name": "createCapsule",
      "outputs": [],
      "payable": false,
      "stateMutability": "nonpayable",
      "type": "function"
    },
    {
      "constant": false,
      "inputs": [
        {
          "name": "_index",
          "type": "uint256"
        }
      ],
      "name": "unlockCapsule",
      "outputs": [],
      "payable": false,
      "stateMutability": "nonpayable",
      "type": "function"
    },
    {
      "constant": true,
      "inputs": [
        {
          "name": "_index",
          "type": "uint256"
        }
      ],
      "name": "getCapsule",
      "outputs": [
        {
          "name": "",
          "type": "string"
        },
        {
          "name": "",
          "type": "uint256"
        },
        {
          "name": "",
          "type": "uint256"
        },
        {
          "name": "",
          "type": "bool"
        }
      ],
      "payable": false,
      "stateMutability": "view",
      "type": "function"
    },
    {
      "constant": true,
      "inputs": [],
      "name": "getCapsules",
      "outputs": [
        {
          "components": [
            {
              "name": "message",
              "type": "string"
            },
            {
              "name": "unlockTime",
              "type": "uint256"
            },
            {
              "name": "creationTime",
              "type": "uint256"
            },
            {
              "name": "isUnlocked",
              "type": "bool"
            }
          ],
          "name": "",
          "type": "tuple[]"
        }
      ],
      "payable": false,
      "stateMutability": "view",
      "type": "function"
    }
  ],
  "bytecode": "0x608060405234801561001057600080fd5b5060405160208061100b833981018060405261002f919081019061008a565b80600160006101000a81548173ffffffffffffffffffffffffffffffffffffffff021916908373ffffffffffffffffffffffffffffffffffffffff160217905550506100e5565b600061008282516100d3565b905092915050565b60006020828403121561009c57600080fd5b60006100aa84828501610076565b91505092915050565b600073ffffffffffffffffffffffffffffffffffffffff82169050919050565b60006100de826100b3565b9050919050565b610f17806100f46000396000f3fe608060405260043610610067576000357c0100000000000000000000000000000000000000000000000000000000900480632178c0a21461006c5780633aac385814610095578063bfac1451146100d5578063cb99952314610100578063d5e0d88e1461012b575b600080fd5b34801561007857600080fd5b50610093600480360361008e91908101906109ad565b610154565b005b3480156100a157600080fd5b506100bc60048036036100b791908101906109ad565b610342565b6040516100cc9493929190610c7f565b60405180910390f35b3480156100e157600080fd5b506100ea6104f7565b6040516100f79190610c5d565b60405180910390f35b34801561010c57600080fd5b50610115610664565b6040516101229190610c42565b60405180910390f35b34801561013757600080fd5b50610152600480360361014d9190810190610959565b61068a565b005b6000803373ffffffffffffffffffffffffffffffffffffffff1673ffffffffffffffffffffffffffffffffffffffff16815260200190815260200160002080549050811015156101d9576040517f08c379a00000000000000000000000000000000000000000000000000000000081526004016101d090610d2b565b60405180910390fd5b60008060003373ffffffffffffffffffffffffffffffffffffffff1673ffffffffffffffffffffffffffffffffffffffff1681526020019081526020016000208281548110151561022657fe5b906000526020600020906004020190508060030160009054906101000a900460ff1615151561028a576040517f08c379a000000000000000000000000000000000000000000000000000000000815260040161028190610ceb565b60405180910390fd5b806001015442101515156102d3576040517f08c379a00000000000000000000000000000000000000000000000000000000081526004016102ca90610d0b565b60405180910390fd5b60018160030160006101000a81548160ff0219169083151502179055503373ffffffffffffffffffffffffffffffffffffffff167f1eef9913bcbf9ca33844966f8e25fe99646ec46ed4c7e21f3080cd8312784360836040516103369190610d4b565b60405180910390a25050565b606060008060008060003373ffffffffffffffffffffffffffffffffffffffff1673ffffffffffffffffffffffffffffffffffffffff16815260200190815260200160002080549050851015156103ce576040517f08c379a00000000000000000000000000000000000000000000000000000000081526004016103c590610d2b565b60405180910390fd5b60008060003373ffffffffffffffffffffffffffffffffffffffff1673ffffffffffffffffffffffffffffffffffffffff1681526020019081526020016000208681548110151561041b57fe5b9060005260206000209060040201905080600001816001015482600201548360030160009054906101000a900460ff16838054600181600116156101000203166002900480601f0160208091040260200160405190810160405280929190818152602001828054600181600116156101000203166002900480156104e05780601f106104b5576101008083540402835291602001916104e0565b820191906000526020600020905b8154815290600101906020018083116104c357829003601f168201915b505050505093509450945094509450509193509193565b60606000803373ffffffffffffffffffffffffffffffffffffffff1673ffffffffffffffffffffffffffffffffffffffff168152602001908152602001600020805480602002602001604051908101604052809291908181526020016000905b8282101561065b578382906000526020600020906004020160806040519081016040529081600082018054600181600116156101000203166002900480601f0160208091040260200160405190810160405280929190818152602001828054600181600116156101000203166002900480156106145780601f106105e957610100808354040283529160200191610614565b820191906000526020600020905b8154815290600101906020018083116105f757829003601f168201915b5050505050815260200160018201548152602001600282015481526020016003820160009054906101000a900460ff16151515158152505081526020019060010190610557565b50505050905090565b600160009054906101000a900473ffffffffffffffffffffffffffffffffffffffff1681565b42811115156106ce576040517f08c379a00000000000000000000000000000000000000000000000000000000081526004016106c590610ccb565b60405180910390fd5b6000803373ffffffffffffffffffffffffffffffffffffffff1673ffffffffffffffffffffffffffffffffffffffff1681526020019081526020016000206080604051908101604052808481526020018381526020014281526020016000151581525090806001815401808255809150509060018203906000526020600020906004020160009091929091909150600082015181600001908051906020019061077892919061084a565b50602082015181600101556040820151816002015560608201518160030160006101000a81548160ff0219169083151502179055505050503373ffffffffffffffffffffffffffffffffffffffff167ffd41d29bdf4a956f24f66650a6aba4615905a79d3e8a27a4381253060533900860016000803373ffffffffffffffffffffffffffffffffffffffff1673ffffffffffffffffffffffffffffffffffffffff1681526020019081526020016000208054905003848460405161083e93929190610d66565b60405180910390a25050565b828054600181600116156101000203166002900490600052602060002090601f016020900481019282601f1061088b57805160ff19168380011785556108b9565b828001600101855582156108b9579182015b828111156108b857825182559160200191906001019061089d565b5b5090506108c691906108ca565b5090565b6108ec91905b808211156108e85760008160009055506001016108d0565b5090565b90565b600082601f830112151561090257600080fd5b813561091561091082610dd1565b610da4565b9150808252602083016020830185838301111561093157600080fd5b61093c838284610e8a565b50505092915050565b60006109518235610e80565b905092915050565b6000806040838503121561096c57600080fd5b600083013567ffffffffffffffff81111561098657600080fd5b610992858286016108ef565b92505060206109a385828601610945565b9150509250929050565b6000602082840312156109bf57600080fd5b60006109cd84828501610945565b91505092915050565b6109df81610e38565b82525050565b60006109f082610e0a565b80845260208401935083602082028501610a0985610dfd565b60005b84811015610a42578383038852610a24838351610bd0565b9250610a2f82610e2b565b9150602088019750600181019050610a0c565b508196508694505050505092915050565b610a5c81610e4a565b82525050565b6000610a6d82610e20565b808452610a81816020860160208601610e99565b610a8a81610ecc565b602085010191505092915050565b6000610aa382610e15565b808452610ab7816020860160208601610e99565b610ac081610ecc565b602085010191505092915050565b6000602182527f556e6c6f636b2074696d65206d75737420626520696e2074686520667574757260208301527f65000000000000000000000000000000000000000000000000000000000000006040830152606082019050919050565b6000601b82527f43617073756c6520697320616c726561647920756e6c6f636b656400000000006020830152604082019050919050565b6000601782527f43617073756c65206973207374696c6c206c6f636b65640000000000000000006020830152604082019050919050565b6000601582527f496e76616c69642063617073756c6520696e64657800000000000000000000006020830152604082019050919050565b60006080830160008301518482036000860152610bed8282610a98565b9150506020830151610c026020860182610c33565b506040830151610c156040860182610c33565b506060830151610c286060860182610a53565b508091505092915050565b610c3c81610e76565b82525050565b6000602082019050610c5760008301846109d6565b92915050565b60006020820190508181036000830152610c7781846109e5565b905092915050565b60006080820190508181036000830152610c998187610a62565b9050610ca86020830186610c33565b610cb56040830185610c33565b610cc26060830184610a53565b95945050505050565b60006020820190508181036000830152610ce481610ace565b9050919050565b60006020820190508181036000830152610d0481610b2b565b9050919050565b60006020820190508181036000830152610d2481610b62565b9050919050565b60006020820190508181036000830152610d4481610b99565b9050919050565b6000602082019050610d606000830184610c33565b92915050565b6000606082019050610d7b6000830186610c33565b8181036020830152610d8d8185610a62565b9050610d9c6040830184610c33565b949350505050565b6000604051905081810181811067ffffffffffffffff82111715610dc757600080fd5b8060405250919050565b600067ffffffffffffffff821115610de857600080fd5b601f19601f8301169050602081019050919050565b6000602082019050919050565b600081519050919050565b600081519050919050565b600081519050919050565b6000602082019050919050565b6000610e4382610e56565b9050919050565b60008115159050919050565b600073ffffffffffffffffffffffffffffffffffffffff82169050919050565b6000819050919050565b6000819050919050565b82818337600083830152505050565b60005b83811015610eb7578082015181840152602081019050610e9c565b83811115610ec6576000848401525b50505050565b6000601f19601f830116905091905056fea265627a7a72305820201e64eb62d8fb15ab959252f61b334d35f8ea01440e37cc76b2152eabfc6b6d6c6578706572696d656e74616cf50037",
  "source": "// SPDX-License-Identifier: MIT\npragma solidity >=0.4.22 <0.9.0;\npragma experimental ABIEncoderV2;\n\ncontract TimeCapsule {\n    struct Capsule {\n        string message;\n        uint256 unlockTime;\n        uint256 creationTime;\n        bool isUnlocked;\n    }\n\n    mapping(address => Capsule[]) private capsules;\n    address public trustedSource;\n\n    event CapsuleCreated(address indexed user, uint256 index, string message, uint256 unlockTime);\n    event CapsuleUnlocked(address indexed user, uint256 index);\n\n    constructor(address _trustedSource) public {\n        trustedSource = _trustedSource;\n    }\n\n    function createCapsule(string memory _message, uint256 _unlockTime) public {\n        require(_unlockTime > block.timestamp, \"Unlock time must be in the future\");\n        capsules[msg.sender].push(Capsule(_message, _unlockTime, block.timestamp, false));\n        emit CapsuleCreated(msg.sender, capsules[msg.sender].length - 1, _message, _unlockTime);\n    }\n\n    function unlockCapsule(uint256 _index) public {\n        require(_index < capsules[msg.sender].length, \"Invalid capsule index\");\n        Capsule storage capsule = capsules[msg.sender][_index];\n        require(!capsule.isUnlocked, \"Capsule is already unlocked\");\n        require(block.timestamp >= capsule.unlockTime, \"Capsule is still locked\");\n        capsule.isUnlocked = true;\n        emit CapsuleUnlocked(msg.sender, _index);\n    }\n\n    function getCapsule(uint256 _index) public view returns (string memory, uint256, uint256, bool) {\n        require(_index < capsules[msg.sender].length, \"Invalid capsule index\");\n        Capsule storage capsule = capsules[msg.sender][_index];\n        return (capsule.message, capsule.unlockTime, capsule.creationTime, capsule.isUnlocked);\n    }\n\n    function getCapsules() public view returns (Capsule[] memory) {\n        return capsules[msg.sender];\n    }\n}\n",
  "sourcePath": "/home/meo/projects/TimeCapsulesProject/contracts/TimeCapsule.sol",
  "compiler": {
    "name": "solc",
    "version": "0.5.1+commit.c8a2cb62.Emscripten.clang"
  },
  "schemaVersion": "3.4.16",
  "updatedAt": "2024-01-06T13:14:42.811Z",
  "networkType": "ethereum",
  "devdoc": {
    "methods": {}
  },
  "userdoc": {
    "methods": {}
  }
}