{
  "contractName": "TimeCapsule",
  "abi": [
    {
      "anonymous": false,
      "inputs": [
        {
          "indexed": true,
          "internalType": "address",
          "name": "user",
          "type": "address"
        },
        {
          "indexed": false,
          "internalType": "uint256",
          "name": "index",
          "type": "uint256"
        },
        {
          "indexed": false,
          "internalType": "string",
          "name": "message",
          "type": "string"
        },
        {
          "indexed": false,
          "internalType": "uint256",
          "name": "unlockTime",
          "type": "uint256"
        }
      ],
      "name": "CapsuleCreated",
      "type": "event"
    },
    {
      "anonymous": false,
      "inputs": [
        {
          "indexed": true,
          "internalType": "address",
          "name": "user",
          "type": "address"
        },
        {
          "indexed": false,
          "internalType": "uint256",
          "name": "index",
          "type": "uint256"
        }
      ],
      "name": "CapsuleUnlocked",
      "type": "event"
    },
    {
      "anonymous": false,
      "inputs": [
        {
          "indexed": true,
          "internalType": "uint256",
          "name": "unlockTime",
          "type": "uint256"
        },
        {
          "indexed": true,
          "internalType": "address",
          "name": "recipient",
          "type": "address"
        },
        {
          "indexed": false,
          "internalType": "uint256",
          "name": "amount",
          "type": "uint256"
        }
      ],
      "name": "WormholeMessage",
      "type": "event"
    },
    {
      "inputs": [
        {
          "internalType": "string",
          "name": "_message",
          "type": "string"
        },
        {
          "internalType": "uint256",
          "name": "_unlockTime",
          "type": "uint256"
        },
        {
          "internalType": "uint256",
          "name": "_amount",
          "type": "uint256"
        },
        {
          "internalType": "address",
          "name": "_recipient",
          "type": "address"
        }
      ],
      "name": "createCapsule",
      "outputs": [],
      "stateMutability": "nonpayable",
      "type": "function"
    },
    {
      "inputs": [
        {
          "internalType": "uint256",
          "name": "_index",
          "type": "uint256"
        }
      ],
      "name": "unlockCapsule",
      "outputs": [],
      "stateMutability": "nonpayable",
      "type": "function"
    },
    {
      "inputs": [
        {
          "internalType": "uint256",
          "name": "_index",
          "type": "uint256"
        }
      ],
      "name": "getCapsule",
      "outputs": [
        {
          "internalType": "string",
          "name": "",
          "type": "string"
        },
        {
          "internalType": "uint256",
          "name": "",
          "type": "uint256"
        },
        {
          "internalType": "bool",
          "name": "",
          "type": "bool"
        }
      ],
      "stateMutability": "view",
      "type": "function",
      "constant": true
    },
    {
      "inputs": [],
      "name": "getCapsules",
      "outputs": [
        {
          "components": [
            {
              "internalType": "string",
              "name": "message",
              "type": "string"
            },
            {
              "internalType": "uint256",
              "name": "unlockTime",
              "type": "uint256"
            },
            {
              "internalType": "bool",
              "name": "isUnlocked",
              "type": "bool"
            }
          ],
          "internalType": "struct TimeCapsule.Capsule[]",
          "name": "",
          "type": "tuple[]"
        }
      ],
      "stateMutability": "view",
      "type": "function",
      "constant": true
    }
  ],
  "bytecode": "0x608060405234801561000f575f80fd5b5061124f8061001d5f395ff3fe608060405234801561000f575f80fd5b506004361061004a575f3560e01c80630c3c253a1461004e5780632178c0a21461006a5780633aac385814610086578063bfac1451146100b8575b5f80fd5b61006860048036038101906100639190610990565b6100d6565b005b610084600480360381019061007f9190610a10565b6102cd565b005b6100a0600480360381019061009b9190610a10565b6104b1565b6040516100af93929190610ade565b60405180910390f35b6100c061066d565b6040516100cd9190610c88565b60405180910390f35b428311610118576040517f08c379a000000000000000000000000000000000000000000000000000000000815260040161010f90610d18565b60405180910390fd5b5f60405180606001604052808681526020018581526020015f151581525090505f803373ffffffffffffffffffffffffffffffffffffffff1673ffffffffffffffffffffffffffffffffffffffff1681526020019081526020015f2081908060018154018082558091505060019003905f5260205f2090600302015f909190919091505f820151815f0190816101ae9190610f30565b50602082015181600101556040820151816002015f6101000a81548160ff02191690831515021790555050503373ffffffffffffffffffffffffffffffffffffffff167ffd41d29bdf4a956f24f66650a6aba4615905a79d3e8a27a4381253060533900860015f803373ffffffffffffffffffffffffffffffffffffffff1673ffffffffffffffffffffffffffffffffffffffff1681526020019081526020015f208054905061025e919061102c565b878760405161026f9392919061105f565b60405180910390a28173ffffffffffffffffffffffffffffffffffffffff16847f07c0842ce253b7766150ce79de3e38cdab946a9ec69c072a2fee8ab489b763c9856040516102be919061109b565b60405180910390a35050505050565b5f803373ffffffffffffffffffffffffffffffffffffffff1673ffffffffffffffffffffffffffffffffffffffff1681526020019081526020015f2080549050811061034e576040517f08c379a0000000000000000000000000000000000000000000000000000000008152600401610345906110fe565b60405180910390fd5b5f805f3373ffffffffffffffffffffffffffffffffffffffff1673ffffffffffffffffffffffffffffffffffffffff1681526020019081526020015f20828154811061039d5761039c61111c565b5b905f5260205f2090600302019050806002015f9054906101000a900460ff16156103fc576040517f08c379a00000000000000000000000000000000000000000000000000000000081526004016103f390611193565b60405180910390fd5b8060010154421015610443576040517f08c379a000000000000000000000000000000000000000000000000000000000815260040161043a906111fb565b60405180910390fd5b6001816002015f6101000a81548160ff0219169083151502179055503373ffffffffffffffffffffffffffffffffffffffff167f1eef9913bcbf9ca33844966f8e25fe99646ec46ed4c7e21f3080cd8312784360836040516104a5919061109b565b60405180910390a25050565b60605f805f803373ffffffffffffffffffffffffffffffffffffffff1673ffffffffffffffffffffffffffffffffffffffff1681526020019081526020015f20805490508410610536576040517f08c379a000000000000000000000000000000000000000000000000000000000815260040161052d906110fe565b60405180910390fd5b5f805f3373ffffffffffffffffffffffffffffffffffffffff1673ffffffffffffffffffffffffffffffffffffffff1681526020019081526020015f2085815481106105855761058461111c565b5b905f5260205f2090600302016040518060600160405290815f820180546105ab90610d63565b80601f01602080910402602001604051908101604052809291908181526020018280546105d790610d63565b80156106225780601f106105f957610100808354040283529160200191610622565b820191905f5260205f20905b81548152906001019060200180831161060557829003601f168201915b5050505050815260200160018201548152602001600282015f9054906101000a900460ff1615151515815250509050805f015181602001518260400151935093509350509193909250565b60605f803373ffffffffffffffffffffffffffffffffffffffff1673ffffffffffffffffffffffffffffffffffffffff1681526020019081526020015f20805480602002602001604051908101604052809291908181526020015f905b828210156107ad578382905f5260205f2090600302016040518060600160405290815f820180546106fa90610d63565b80601f016020809104026020016040519081016040528092919081815260200182805461072690610d63565b80156107715780601f1061074857610100808354040283529160200191610771565b820191905f5260205f20905b81548152906001019060200180831161075457829003601f168201915b5050505050815260200160018201548152602001600282015f9054906101000a900460ff161515151581525050815260200190600101906106ca565b50505050905090565b5f604051905090565b5f80fd5b5f80fd5b5f80fd5b5f80fd5b5f601f19601f8301169050919050565b7f4e487b71000000000000000000000000000000000000000000000000000000005f52604160045260245ffd5b610815826107cf565b810181811067ffffffffffffffff82111715610834576108336107df565b5b80604052505050565b5f6108466107b6565b9050610852828261080c565b919050565b5f67ffffffffffffffff821115610871576108706107df565b5b61087a826107cf565b9050602081019050919050565b828183375f83830152505050565b5f6108a76108a284610857565b61083d565b9050828152602081018484840111156108c3576108c26107cb565b5b6108ce848285610887565b509392505050565b5f82601f8301126108ea576108e96107c7565b5b81356108fa848260208601610895565b91505092915050565b5f819050919050565b61091581610903565b811461091f575f80fd5b50565b5f813590506109308161090c565b92915050565b5f73ffffffffffffffffffffffffffffffffffffffff82169050919050565b5f61095f82610936565b9050919050565b61096f81610955565b8114610979575f80fd5b50565b5f8135905061098a81610966565b92915050565b5f805f80608085870312156109a8576109a76107bf565b5b5f85013567ffffffffffffffff8111156109c5576109c46107c3565b5b6109d1878288016108d6565b94505060206109e287828801610922565b93505060406109f387828801610922565b9250506060610a048782880161097c565b91505092959194509250565b5f60208284031215610a2557610a246107bf565b5b5f610a3284828501610922565b91505092915050565b5f81519050919050565b5f82825260208201905092915050565b5f5b83811015610a72578082015181840152602081019050610a57565b5f8484015250505050565b5f610a8782610a3b565b610a918185610a45565b9350610aa1818560208601610a55565b610aaa816107cf565b840191505092915050565b610abe81610903565b82525050565b5f8115159050919050565b610ad881610ac4565b82525050565b5f6060820190508181035f830152610af68186610a7d565b9050610b056020830185610ab5565b610b126040830184610acf565b949350505050565b5f81519050919050565b5f82825260208201905092915050565b5f819050602082019050919050565b5f82825260208201905092915050565b5f610b5d82610a3b565b610b678185610b43565b9350610b77818560208601610a55565b610b80816107cf565b840191505092915050565b610b9481610903565b82525050565b610ba381610ac4565b82525050565b5f606083015f8301518482035f860152610bc38282610b53565b9150506020830151610bd86020860182610b8b565b506040830151610beb6040860182610b9a565b508091505092915050565b5f610c018383610ba9565b905092915050565b5f602082019050919050565b5f610c1f82610b1a565b610c298185610b24565b935083602082028501610c3b85610b34565b805f5b85811015610c765784840389528151610c578582610bf6565b9450610c6283610c09565b925060208a01995050600181019050610c3e565b50829750879550505050505092915050565b5f6020820190508181035f830152610ca08184610c15565b905092915050565b7f556e6c6f636b2074696d65206d75737420626520696e207468652066757475725f8201527f6500000000000000000000000000000000000000000000000000000000000000602082015250565b5f610d02602183610a45565b9150610d0d82610ca8565b604082019050919050565b5f6020820190508181035f830152610d2f81610cf6565b9050919050565b7f4e487b71000000000000000000000000000000000000000000000000000000005f52602260045260245ffd5b5f6002820490506001821680610d7a57607f821691505b602082108103610d8d57610d8c610d36565b5b50919050565b5f819050815f5260205f209050919050565b5f6020601f8301049050919050565b5f82821b905092915050565b5f60088302610def7fffffffffffffffffffffffffffffffffffffffffffffffffffffffffffffffff82610db4565b610df98683610db4565b95508019841693508086168417925050509392505050565b5f819050919050565b5f610e34610e2f610e2a84610903565b610e11565b610903565b9050919050565b5f819050919050565b610e4d83610e1a565b610e61610e5982610e3b565b848454610dc0565b825550505050565b5f90565b610e75610e69565b610e80818484610e44565b505050565b5b81811015610ea357610e985f82610e6d565b600181019050610e86565b5050565b601f821115610ee857610eb981610d93565b610ec284610da5565b81016020851015610ed1578190505b610ee5610edd85610da5565b830182610e85565b50505b505050565b5f82821c905092915050565b5f610f085f1984600802610eed565b1980831691505092915050565b5f610f208383610ef9565b9150826002028217905092915050565b610f3982610a3b565b67ffffffffffffffff811115610f5257610f516107df565b5b610f5c8254610d63565b610f67828285610ea7565b5f60209050601f831160018114610f98575f8415610f86578287015190505b610f908582610f15565b865550610ff7565b601f198416610fa686610d93565b5f5b82811015610fcd57848901518255600182019150602085019450602081019050610fa8565b86831015610fea5784890151610fe6601f891682610ef9565b8355505b6001600288020188555050505b505050505050565b7f4e487b71000000000000000000000000000000000000000000000000000000005f52601160045260245ffd5b5f61103682610903565b915061104183610903565b925082820390508181111561105957611058610fff565b5b92915050565b5f6060820190506110725f830186610ab5565b81810360208301526110848185610a7d565b90506110936040830184610ab5565b949350505050565b5f6020820190506110ae5f830184610ab5565b92915050565b7f496e76616c69642063617073756c6520696e64657800000000000000000000005f82015250565b5f6110e8601583610a45565b91506110f3826110b4565b602082019050919050565b5f6020820190508181035f830152611115816110dc565b9050919050565b7f4e487b71000000000000000000000000000000000000000000000000000000005f52603260045260245ffd5b7f43617073756c6520697320616c726561647920756e6c6f636b656400000000005f82015250565b5f61117d601b83610a45565b915061118882611149565b602082019050919050565b5f6020820190508181035f8301526111aa81611171565b9050919050565b7f43617073756c65206973207374696c6c206c6f636b65640000000000000000005f82015250565b5f6111e5601783610a45565b91506111f0826111b1565b602082019050919050565b5f6020820190508181035f830152611212816111d9565b905091905056fea264697066735822122009634eb617094252f6a6f8cfc647af5d970959b8b94edb29320bfd223b2348b864736f6c63430008150033",
  "immutableReferences": {},
  "source": "// SPDX-License-Identifier: MIT\npragma solidity ^0.8.0;\n\ncontract TimeCapsule {\n    struct Capsule {\n        string message;\n        uint256 unlockTime;\n        bool isUnlocked;\n    }\n\n    mapping(address => Capsule[]) private capsules;\n\n    // Event for capsule creation\n    event CapsuleCreated(address indexed user, uint256 index, string message, uint256 unlockTime);\n    // Event for capsule unlocking\n    event CapsuleUnlocked(address indexed user, uint256 index);\n    // Event for Wormhole message\n    event WormholeMessage(uint256 indexed unlockTime, address indexed recipient, uint256 amount);\n\n    // Create a new time capsule\n    function createCapsule(string memory _message, uint256 _unlockTime, uint256 _amount, address _recipient) public {\n        require(_unlockTime > block.timestamp, \"Unlock time must be in the future\");\n        \n        Capsule memory newCapsule = Capsule({\n            message: _message,\n            unlockTime: _unlockTime,\n            isUnlocked: false\n        });\n\n        capsules[msg.sender].push(newCapsule);\n        emit CapsuleCreated(msg.sender, capsules[msg.sender].length - 1, _message, _unlockTime);\n\n        // Emitting the Wormhole message event\n        emit WormholeMessage(_unlockTime, _recipient, _amount);\n    }\n\n    // Unlock a time capsule\n    function unlockCapsule(uint256 _index) public {\n        require(_index < capsules[msg.sender].length, \"Invalid capsule index\");\n        Capsule storage capsule = capsules[msg.sender][_index];\n        require(!capsule.isUnlocked, \"Capsule is already unlocked\");\n        require(block.timestamp >= capsule.unlockTime, \"Capsule is still locked\");\n\n        capsule.isUnlocked = true;\n        emit CapsuleUnlocked(msg.sender, _index);\n    }\n\n    // Retrieve capsule data\n    function getCapsule(uint256 _index) public view returns (string memory, uint256, bool) {\n        require(_index < capsules[msg.sender].length, \"Invalid capsule index\");\n        Capsule memory capsule = capsules[msg.sender][_index];\n        return (capsule.message, capsule.unlockTime, capsule.isUnlocked);\n    }\n\n    // Retrieve all capsules for a user\n    function getCapsules() public view returns (Capsule[] memory) {\n        return capsules[msg.sender];\n    }\n}\n",
  "sourcePath": "/home/meo/projects/TimeCapsulesProject/contracts/TimeCapsule.sol",
  "compiler": {
    "name": "solc",
    "version": "0.8.21+commit.d9974bed.Emscripten.clang"
  },
  "schemaVersion": "3.4.16",
  "updatedAt": "2024-01-02T14:10:13.584Z",
  "networkType": "ethereum",
  "devdoc": {
    "kind": "dev",
    "methods": {},
    "version": 1
  },
  "userdoc": {
    "kind": "user",
    "methods": {},
    "version": 1
  }
}